:0C0000000C942B010C9400000C940000E8
:10000C000C9400000C9400000C9400000C94000064
:10001C000C9400000C9400000C9400000C94000054
:10002C000C9400000C9400000C9400000C94000044
:10003C000C9400000C9400000C9400000C94000034
:10004C000C9400000C9400000C9400000C94000024
:10005C000C9400000C9400000C9400000C94000014
:10006C000C9400000C94B3020C94B2020C9400009B
:10007C000C9400000C9400000C9400000C940000F4
:10008C0014051405260538055D01546F704C656622
:10009C00740014054A055C056E055D01546F704CC7
:1000AC006566740014053805800514055D01546FF0
:1000BC00704C656674004A051405140592055D01C3
:1000CC00546F704C656674004A0526051405A4052A
:1000DC005D01546F704C656674006E052605140541
:1000EC0014055D01546F704C656674003805140579
:1000FC00B605C8055D01546F704C65667400380513
:10010C005C05DA05EC055D01546F704C6566740096
:10011C003805C805140514055D01546F704C6566EF
:10012C0074006E0514051405FE055D01546F704CCA
:10013C00656674006E058005100614055D01546F2C
:10014C00704C656674005C051405140522065D018F
:10015C00546F704C656674005C05B6051405140587
:10016C005D01546F704C65667400C8051405140568
:10017C0014055D01546F704C65667400FE05140522
:10018C00140534060000546F704C65667400FE054F
:10019C001006140546060000546F704C656674001A
:1001AC00FE053406140514050000546F704C65668A
:1001BC0074003A0022003B002300390021000200A9
:1001CC00020002000200020080C001002D4E414ED0
:1001DC0000494E46000011004A058C0011003805FC
:1001EC009E0011006E05B00011002605C200110022
:1001FC009205D4001100A405E60011005C05F8007E
:10020C001100C8050A011100EC051C011100800544
:10021C002E011100FE0540011100B605520111001E
:10022C00220664011100DA0576011100100688011E
:10023C00110034069A0111004606AC010200580662
:10024C00D40101005C06D6010000F894EE27ECBB4B
:10025C00F1E0F5BFE5BFE0936C00F8E1F1BDE1BD65
:10026C008DE0A2E0BB27ED938A95E9F780E090E161
:10027C00A0E0B1E0ED930197E9F7E2EEF1E08591B2
:10028C009591009761F0A591B59105901590BF01DE
:10029C00F00105900D920197E1F7FB01F0CFEFEF24
:1002AC00EDBFE0E1EEBFC0E0D5E00C94E4020895B0
:1002BC002897A9D4AAE0B0E0C9D2AF01CDD220E0F2
:1002CC0030E000E010E00032E0E01E078CF4CAD20F
:1002DC00D29ADA9886EF8A95F1F7D298C99903C029
:1002EC00C7D2CBD2FBCFD2D2D29A0F5F1F4FEBCF5C
:1002FC00D8D20032E0E01E0794F4B4D2ADD2109AFA
:10030C00189886EF8A95F1F71098089903C0B0D227
:10031C00B4D2FBCFBBD2109A0F5F1F4FEACFC1D222
:10032C000032E0E01E0794F49DD296D2179A1F98E3
:10033C0086EF8A95F1F717980F9903C099D29DD241
:10034C00FBCFA4D2179A0F5F1F4FEACFAAD200326D
:10035C00E0E01E0794F486D27FD2D19AD99886EF2A
:10036C008A95F1F7D198CA9903C082D286D2FBCF75
:10037C008DD2D19A0F5F1F4FEACF93D20032E0E0BB
:10038C001E0794F46FD268D2D39ADB9886EF8A95C5
:10039C00F1F7D398CB9903C06BD26FD2FBCF76D247
:1003AC00D39A0F5F1F4FEACFF901DA01EE0FFF1F4F
:1003BC00EA0FFB1FAE81BF81A083B1832F5F3F4F3C
:1003CC00FA0128D42E9608952C978AE0A2E0B0E08A
:1003DC00EAECF1E026D417D473D2E0E0EE83EF839D
:1003EC00AE81BF81159764F5EE81FF816ED2FF93CC
:1003FC00EF93EE81FF81DE011896EE0FFF1FAE0F1B
:10040C00BF1F0D901C90EE81FF81A0E0B5E0AED334
:10041C00AE0FBF1FC7D3D001BCD3E5D32CD3AF9144
:10042C00BF9188279927DFD374D320F04E815F8149
:10043C002F5F3F4FEE81FF813196EE83FF83D0CF4C
:10044C002230E0E03E0714F0E0E01CC0FA013097E7
:10045C0011F4E1E017C0E130A0E0FA0711F4E2E09A
:10046C0011C0E230A0E0FA0711F4E3E00BC0E33076
:10047C00A0E0FA0711F4E4E005C0E430A0E0FA07CC
:10048C0009F4E5E0C7D362960895BFD319D220E0F2
:10049C0030E02530E0E03E07F4F4F901A0E0B5E0EF
:1004AC0065D3EA0FFB1FFF93EF93F9010ED2F6957C
:1004BC00E79561D36627772754D2A0E0B0E080E0BF
:1004CC009FE389D2DF01CB01B1D1AF91BF9170D342
:1004DC002F5F3F4FDECFA0D30C942A04AA93E88160
:1004EC00F0E0E130A0E0FA0721F4D20157D3DF01AC
:1004FC0017C0E230A0E0FA0721F4F201A281B38127
:10050C000FC0E330A0E0FA0721F4F201A481B58119
:10051C0007C0E430A0E0FA0721F4F201A681B7810C
:10052C0002D00C94EA03BA93AA93E4E1F5E0A88113
:10053C00B981EA17FB0711F0488059800C943004FC
:10054C00BA93AA93E9D0E0E0EA93A0E0D8D0A881CE
:10055C00B98101D10C94300418950A921A92FA922E
:10056C006A937A938A939A93AA93BA93EA93FA9397
:10057C00EFB7EA931A9328DF1E2FF0E0309779F04B
:10058C00E530A0E0FA0731F4F20100841184F001A7
:10059C00099505C0A12FA2DFD2011A96D1DF1991BE
:1005AC00E991EFBFF991E991B991A991999189914B
:1005BC0079916991F990199009901895EFEFEABB30
:1005CC00E0E0EBBBEFEFE7BBE0E0E8BBEFEFE4BB59
:1005DC00E0E0E5BBEFEFE1BBE0E0E2BBEFEFE2B95F
:1005EC00E0E0E3B9EFEFE0936100E0E0E09362005C
:1005FC00EFE1E0936400E0E0E0936500E0BFE3BF6F
:10060C00E2BFE1BFEAEAEFBDE9E1EEBDE0E0EDBD3E
:10061C00ECBDE7BDE6BDEBBDEABDE9BDE8BDE093D1
:10062C007900E0937800E5BDE4BDE3BDE2E0E09342
:10063C008B00EDE1E0938A00E0E0E0938900E09329
:10064C008800E0938100E0938000E0938700E093C2
:10065C008600E0938500E0938400E0938300E093B0
:10066C008200E7BFE6E0E0937D00E0E0E0936A0003
:10067C00EABFE9BFEAB9E0939A00E0E8E8B9E0E044
:10068C00E0BDE6B9EDB9E0937400A8E075D0A1E047
:10069C00B0E02ED1FADE7894FFCFFFCFAA93E88199
:1006AC00E07111F0DE9A01C0DE98E881E07211F081
:1006BC00DB9A01C0DB98E881E07411F0DD9A01C08F
:1006CC00DD98E881E07811F0DC9A01C0DC988CE0D0
:1006DC008A95F1F7949A8CE08A95F1F794988CE0CE
:1006EC008A95F1F771C0AA93A881D8DFE881E295C9
:1006FC00E883A881D3DF8BE78A95F1F765C0AA93CD
:10070C00E881F0E0E85AF94FE081A981AE0FEBDF08
:10071C00798068800C943004A2E0DED0ACE0E3DF9A
:10072C00A1E0DAD0E0E06E2E7E2E0895AA93A88187
:10073C00AA3011F0791448F0E0E0EA936394A62D06
:10074C00DEDFA881AA3009F43FC07394959AA88182
:10075C00CADF959839C0BA93AA931A93A981BA8122
:10076C00ED91A983BA831E2FE03019F0A12FDEDFA3
:10077C00F5CF188123960895AA93D69AD39AD59A31
:10078C00D49A8C9A8D9A899A9498959891989880E5
:10079C00E881E058E0935A06E881E054E0935B0668
:1007AC00A4E1B0E0A5D09CD09BD09AD0A0E276DF9B
:1007BC0086EF8A95F1F7A8E296DFA4E094DFA5E82E
:1007CC0092DFA6E090DFA8DF2196089505D27B8109
:1007DC006A81F981E88177FB770F67FD7160972F4C
:1007EC009E5781F078F0983190F4AA27BB27882780
:1007FC0008948795B795A7959A95D1F7EA23FB238B
:10080C00682305C0E8947727EE27FF2766276F77C4
:10081C00769508F4606877F9A991B99189919991C5
:10082C00EA17FB076807790797FB0895D5D1CAD15A
:10083C00CDDFCDD111F45AD007C0EEF757D0A0E0E0
:10084C00B0E080E89FE3C0D024960895BA93AA93B1
:10085C00E0E0F0E022960895E0E0EE83EF83E88795
:10086C00E9870895E0E0EA87EB87EC87ED87089548
:10087C00EA85FB856C857D850895EF5FFF4F6F4F93
:10088C007F4FEA87FB876C877D870895F1DFAE8108
:10089C00BF81888599855DD1EE83FF8368877987D1
:1008AC000895F901DA01EE0FFF1FEA0FFB1FAE816D
:1008BC00BF81A083B1832F5F3F4F00E010E008950C
:1008CC00F7DC8F0120E030E00895D801EE0FFF1F18
:1008DC00AE0FBF1F63D1089506DFA3E0B0E008C0E0
:1008EC00A0E3DCDE86EF8A95F1F7089566D10895D2
:1008FC00109639F083E397E00197F1F7A8951197DB
:10090C00C9F70895552342F4503811F4E0FF04C0A0
:10091C003196691F791F6BF050E8572711F45F93DC
:10092C0098C05F3F31F0660F000C57956795752F97
:10093C0008955F9300200AF098C091C050E8192EDA
:10094C001522880F991F9527550F879550E8072E6C
:10095C000522660F771F7527550F679508956894C4
:10096C0001C0E894309760407040B1F0002426F04C
:10097C00772312F40094F2D0172E7EE1112032F07E
:10098C007A95EE0FFF1F661F111CF9CFEF2FF62F74
:10099C00612D5F93C1DF5F9108954F93AF01FD010E
:1009AC00DA01AB01BC01CA01402D012C142E4F9170
:1009BC000895EA0FFB1F681F0895E095F095609568
:1009CC00EF5FFF4F6F4F08955F93B8DF903871F171
:1009DC0050E8152604C05F93B1DF903839F17038B8
:1009EC0021F1572F591B2BF112F4D7DFFACF5831C5
:1009FC0018F0AA27BB278827583028F0AB2FB82F20
:100A0C0088275850F9CF552329F08695B795A79587
:100A1C005A95D9F7502D512572F0CBDF38F46795E4
:100A2C00F795E795739513F420C0B7DF75DF5F91E9
:100A3C000895D8F7FBCFEA1BFB0B680B51F010F4B1
:100A4C000094BBDF662392F3EE0FFF1F661F7A95AF
:100A5C00CBF7EE27FF27662777275F910895EFEFF7
:100A6C00FFEF6FE77FEF5F910895EFEFFFEF6FE719
:100A7C007FE75F9108955F9361DF703851F3903891
:100A8C0041F301240894791F23F41CF300203AF35A
:100A9C00ECCF0F921F932F933F934F931127222745
:100AAC009927689FA0018F9F302D410D591F6B9F77
:100ABC00300D411D591F8E9F27D0BF9F25D06A9F97
:100ACC0023D0BE9F1DD0AF9F1BD0AE9F110D291FF1
:100ADC00391F491F591FE32FF42F652F522F4F91A8
:100AEC003F912F911F910F9066232AF0550FEE1F07
:100AFC00FF1F661F02C073954BF204DF5F910895D0
:100B0C00100D211D391F02C0200D311D491F591F09
:100B1C00089599239AF0772342F0971748F029F417
:100B2C00AE17BF07860720F031F09894889408958B
:100B3C009894089408951894889408957723C2F78C
:100B4C00971798F3A9F7EA17FB07680788F399F347
:100B5C00ECCFEA0FFB1F681F791F0895F095609585
:100B6C007095E195FF4F6F4F7F4F0895EE0FFF1F6C
:100B7C00EE0FFF1F0895F695E795F695E795F69518
:100B8C00E795F695E79508956F2F660F660B762F10
:100B9C0008958B2F880F880B982F0895ED91FC9159
:100BAC0011970895ED91FD916D917C911397089596
:100BBC00ED93FD936D937C930895E881F9816A819F
:100BCC007B810895A881B9818A819B810895E883EE
:100BDC00F9836A837B8308959A938A93BA93AA9331
:100BEC000895689401C0E89401D0BCDE182E862FBD
:100BFC00612D192E972F712D1B2EBF2FF12D1A2E13
:100C0C00AE2FE12D08955A934A933A932A931A934F
:100C1C000A9308955D814C813B812A811981088159
:100C2C000895AC0FBD1F05900D928A95E1F70895BC
:00000001FF
